:100000000C945C000C946E000C946E000C946E00CA
:100010000C946E000C946E000C946E000C946E00A8
:100020000C946E000C946E000C946E000C946E0098
:100030000C946E000C946E000C946E000C946E0088
:100040000C9460020C946E000C946E000C946E0084
:100050000C946E000C946E000C946E000C946E0068
:100060000C946E000C946E00000000080002010069
:100070000003040700000000000000000102040863
:100080001020408001020408102001020408102002
:10009000040404040404040402020202020203032E
:1000A0000303030300000000250028002B000000CC
:1000B0000000240027002A0011241FBECFEFD8E043
:1000C000DEBFCDBF21E0A0E0B1E001C01D92A930AC
:1000D000B207E1F70E94DB030C94EB030C940000E1
:1000E00061E081E00E946B0361E082E00E946B03AB
:1000F00061E083E00E946B0361E084E00E946B0397
:1001000061E085E00E946B0361E086E00E946B0382
:1001100061E087E00E946B0361E088E00E946B036E
:1001200061E089E00E946B0361E08AE00E946B035A
:1001300061E08BE00E946B0361E08CE00C946B0348
:1001400061E081E00E94A40360E082E00E94A403D9
:1001500060E083E00E94A40360E084E00E94A403C6
:1001600060E085E00E94A40361E086E00E94A403B1
:1001700060E087E00E94A40360E088E00E94A4039E
:1001800061E089E00E94A40360E08AE00E94A40389
:1001900060E08BE00E94A40361E08CE00C94A40377
:1001A00061E081E00E94A40361E082E00E94A40378
:1001B00060E083E00E94A40360E084E00E94A40366
:1001C00061E085E00E94A40361E086E00E94A40350
:1001D00060E087E00E94A40360E088E00E94A4033E
:1001E00061E089E00E94A40360E08AE00E94A40329
:1001F00060E08BE00E94A40361E08CE00C94A40317
:1002000060E081E00E94A40360E082E00E94A40319
:1002100061E083E00E94A40361E084E00E94A40303
:1002200060E085E00E94A40360E086E00E94A403F1
:1002300060E087E00E94A40360E088E00E94A403DD
:1002400061E089E00E94A40360E08AE00E94A403C8
:1002500060E08BE00E94A40361E08CE00C94A403B6
:1002600060E081E00E94A40360E082E00E94A403B9
:1002700061E083E00E94A40361E084E00E94A403A3
:1002800061E085E00E94A40360E086E00E94A40390
:1002900060E087E00E94A40361E088E00E94A4037C
:1002A00061E089E00E94A40360E08AE00E94A40368
:1002B00060E08BE00E94A40361E08CE00C94A40356
:1002C00060E081E00E94A40360E082E00E94A40359
:1002D00061E083E00E94A40360E084E00E94A40344
:1002E00060E085E00E94A40361E086E00E94A40330
:1002F00061E087E00E94A40360E088E00E94A4031C
:1003000060E089E00E94A40360E08AE00E94A40308
:1003100060E08BE00E94A40361E08CE00C94A403F5
:1003200061E081E00E94A40360E082E00E94A403F7
:1003300060E083E00E94A40360E084E00E94A403E4
:1003400060E085E00E94A40361E086E00E94A403CF
:1003500061E087E00E94A40361E088E00E94A403BA
:1003600060E089E00E94A40360E08AE00E94A403A8
:1003700061E08BE00E94A40361E08CE00C94A40394
:1003800060E081E00E94A40360E082E00E94A40398
:1003900061E083E00E94A40360E084E00E94A40383
:1003A00060E085E00E94A40361E086E00E94A4036F
:1003B00060E087E00E94A40360E088E00E94A4035C
:1003C00061E089E00E94A40361E08AE00E94A40346
:1003D00060E08BE00E94A40360E08CE00C94A40336
:1003E00060E081E00E94A40361E082E00E94A40337
:1003F00061E083E00E94A40360E084E00E94A40323
:1004000060E085E00E94A40361E086E00E94A4030E
:1004100060E087E00E94A40360E088E00E94A403FB
:1004200061E089E00E94A40360E08AE00E94A403E6
:1004300061E08BE00E94A40361E08CE00C94A403D3
:100440000E94A00068E873E180E090E00E94CD0285
:100450000E94D00068EE73E080E090E00E94CD0240
:100460000E94000168E873E180E090E00E94CD0204
:100470000E94300168EE73E080E090E00E94CD02BF
:100480000E94600168E873E180E090E00E94CD0284
:100490000E94900168EE73E080E090E00E94CD023F
:1004A0000E94C00168E873E180E090E00E94CD0204
:1004B0000E94F00168EE73E080E090E00C94CD02C1
:1004C0001F920F920FB60F9211242F933F938F9389
:1004D0009F93AF93BF938091010190910201A091EE
:1004E0000301B09104013091000123E0230F2D3767
:1004F00020F40196A11DB11D05C026E8230F029628
:10050000A11DB11D20930001809301019093020170
:10051000A0930301B093040180910501909106011D
:10052000A0910701B09108010196A11DB11D809312
:10053000050190930601A0930701B0930801BF91B4
:10054000AF919F918F913F912F910F900FBE0F9080
:100550001F9018953FB7F89480910501909106017E
:10056000A0910701B091080126B5A89B05C02F3FB7
:1005700019F00196A11DB11D3FBF6627782F892F65
:100580009A2F620F711D811D911D42E0660F771F2A
:10059000881F991F4A95D1F708958F929F92AF9225
:1005A000BF92CF92DF92EF92FF926B017C010E948B
:1005B000AA024B015C01C114D104E104F104F1F081
:1005C0000E94EA030E94AA02681979098A099B0914
:1005D000683E73408105910570F321E0C21AD1088D
:1005E000E108F10888EE880E83E0981EA11CB11C7A
:1005F000C114D104E104F10429F7DDCFFF90EF909D
:10060000DF90CF90BF90AF909F908F900895789497
:1006100084B5826084BD84B5816084BD85B5826007
:1006200085BD85B5816085BDEEE6F0E080818160A5
:100630008083E1E8F0E010828081826080838081A5
:1006400081608083E0E8F0E0808181608083E1EB7D
:10065000F0E0808184608083E0EBF0E08081816065
:100660008083EAE7F0E0808184608083808182601B
:100670008083808181608083808180688083109204
:10068000C1000895833081F028F4813099F08230E0
:10069000A1F008958730A9F08830B9F08430D1F402
:1006A000809180008F7D03C0809180008F77809340
:1006B0008000089584B58F7702C084B58F7D84BD96
:1006C00008958091B0008F7703C08091B0008F7D36
:1006D0008093B0000895CF93DF9390E0FC01E4583D
:1006E000FF4F2491FC01E057FF4F8491882349F18B
:1006F00090E0880F991FFC01E255FF4FA591B4913E
:100700008C559F4FFC01C591D4919FB7611108C0D2
:10071000F8948C91209582238C93888182230AC03F
:10072000623051F4F8948C91322F309583238C935E
:100730008881822B888304C0F8948C91822B8C93BF
:100740009FBFDF91CF9108950F931F93CF93DF93B6
:100750001F92CDB7DEB7282F30E0F901E859FF4FDF
:100760008491F901E458FF4F1491F901E057FF4FCC
:1007700004910023C9F0882321F069830E94420379
:100780006981E02FF0E0EE0FFF1FEC55FF4FA591C0
:10079000B4919FB7F8948C91611103C01095812397
:1007A00001C0812B8C939FBF0F90DF91CF911F9140
:1007B0000F91089508950E9407030E94DA030E9492
:1007C0007000C0E0D0E00E9420022097E1F30E9478
:0A07D0000000F9CF0895F894FFCF60
:00000001FF
